{
  "contractName": "DeleteContract",
  "abi": [
    {
      "inputs": [
        {
          "internalType": "address",
          "name": "_storageAddress",
          "type": "address"
        }
      ],
      "stateMutability": "nonpayable",
      "type": "constructor"
    },
    {
      "inputs": [
        {
          "internalType": "bytes32",
          "name": "_hash",
          "type": "bytes32"
        }
      ],
      "name": "deleteHashEntry",
      "outputs": [],
      "stateMutability": "nonpayable",
      "type": "function"
    }
  ],
  "bytecode": "0x608060405234801561001057600080fd5b506040516102b93803806102b98339818101604052810190610032919061008d565b806000806101000a81548173ffffffffffffffffffffffffffffffffffffffff021916908373ffffffffffffffffffffffffffffffffffffffff16021790555050610108565b600081519050610087816100f1565b92915050565b6000602082840312156100a3576100a26100ec565b5b60006100b184828501610078565b91505092915050565b60006100c5826100cc565b9050919050565b600073ffffffffffffffffffffffffffffffffffffffff82169050919050565b600080fd5b6100fa816100ba565b811461010557600080fd5b50565b6101a2806101176000396000f3fe608060405234801561001057600080fd5b506004361061002b5760003560e01c8063d6aaaf8f14610030575b600080fd5b61004a600480360381019061004591906100ef565b61004c565b005b60008054906101000a900473ffffffffffffffffffffffffffffffffffffffff1673ffffffffffffffffffffffffffffffffffffffff166363f0bfce826040518263ffffffff1660e01b81526004016100a5919061012b565b600060405180830381600087803b1580156100bf57600080fd5b505af11580156100d3573d6000803e3d6000fd5b5050505050565b6000813590506100e981610155565b92915050565b60006020828403121561010557610104610150565b5b6000610113848285016100da565b91505092915050565b61012581610146565b82525050565b6000602082019050610140600083018461011c565b92915050565b6000819050919050565b600080fd5b61015e81610146565b811461016957600080fd5b5056fea2646970667358221220147bf02c017ff1db933d7b5c527ff424f181060050b23fa684df8cb59820585964736f6c63430008070033",
  "immutableReferences": {},
  "source": "// SPDX-License-Identifier: MIT\r\npragma solidity ^0.8.7;\r\n\r\nimport \"./StorageContract.sol\";\r\n\r\ncontract DeleteContract {\r\n    StorageContract storageContract;\r\n\r\n    constructor(address _storageAddress) {\r\n        storageContract = StorageContract(_storageAddress);\r\n    }\r\n\r\n    // Delete a hash entry\r\n    function deleteHashEntry(bytes32 _hash) public {\r\n        storageContract.deleteHash(_hash);\r\n    }\r\n}\r\n",
  "sourcePath": "E:\\Sarvesh\\Final_Proj\\truffle\\contracts\\DeleteContract.sol",
  "compiler": {
    "name": "solc",
    "version": "0.8.7+commit.e28d00a7.Emscripten.clang"
  },
  "schemaVersion": "3.4.16",
  "updatedAt": "2025-01-05T02:12:29.193Z",
  "networkType": "ethereum",
  "devdoc": {
    "kind": "dev",
    "methods": {},
    "version": 1
  },
  "userdoc": {
    "kind": "user",
    "methods": {},
    "version": 1
  }
}