{
  "contractName": "StorageContract",
  "abi": [
    {
      "inputs": [
        {
          "internalType": "bytes32",
          "name": "",
          "type": "bytes32"
        }
      ],
      "name": "hashToOwner",
      "outputs": [
        {
          "internalType": "address",
          "name": "",
          "type": "address"
        }
      ],
      "stateMutability": "view",
      "type": "function",
      "constant": true
    },
    {
      "inputs": [
        {
          "internalType": "bytes32",
          "name": "_hash",
          "type": "bytes32"
        },
        {
          "internalType": "address",
          "name": "_owner",
          "type": "address"
        }
      ],
      "name": "addHash",
      "outputs": [],
      "stateMutability": "nonpayable",
      "type": "function"
    },
    {
      "inputs": [
        {
          "internalType": "bytes32",
          "name": "_hash",
          "type": "bytes32"
        }
      ],
      "name": "getOwner",
      "outputs": [
        {
          "internalType": "address",
          "name": "",
          "type": "address"
        }
      ],
      "stateMutability": "view",
      "type": "function",
      "constant": true
    },
    {
      "inputs": [
        {
          "internalType": "bytes32",
          "name": "_hash",
          "type": "bytes32"
        }
      ],
      "name": "hashExists",
      "outputs": [
        {
          "internalType": "bool",
          "name": "",
          "type": "bool"
        }
      ],
      "stateMutability": "view",
      "type": "function",
      "constant": true
    },
    {
      "inputs": [
        {
          "internalType": "bytes32",
          "name": "_hash",
          "type": "bytes32"
        },
        {
          "internalType": "address",
          "name": "_newOwner",
          "type": "address"
        }
      ],
      "name": "updateOwner",
      "outputs": [],
      "stateMutability": "nonpayable",
      "type": "function"
    },
    {
      "inputs": [
        {
          "internalType": "bytes32",
          "name": "_hash",
          "type": "bytes32"
        }
      ],
      "name": "deleteHash",
      "outputs": [],
      "stateMutability": "nonpayable",
      "type": "function"
    }
  ],
  "bytecode": "0x608060405234801561001057600080fd5b506104a3806100206000396000f3fe608060405234801561001057600080fd5b50600436106100625760003560e01c806363f0bfce146100675780639711a54314610083578063ab12eab11461009f578063b535b5c3146100cf578063b9d5bcc2146100ff578063deb931a21461011b575b600080fd5b610081600480360381019061007c9190610331565b61014b565b005b61009d6004803603810190610098919061035e565b610183565b005b6100b960048036038101906100b49190610331565b6101d8565b6040516100c691906103bc565b60405180910390f35b6100e960048036038101906100e49190610331565b61020b565b6040516100f691906103d7565b60405180910390f35b6101196004803603810190610114919061035e565b610276565b005b61013560048036038101906101309190610331565b6102cb565b60405161014291906103bc565b60405180910390f35b60008082815260200190815260200160002060006101000a81549073ffffffffffffffffffffffffffffffffffffffff021916905550565b8060008084815260200190815260200160002060006101000a81548173ffffffffffffffffffffffffffffffffffffffff021916908373ffffffffffffffffffffffffffffffffffffffff1602179055505050565b60006020528060005260406000206000915054906101000a900473ffffffffffffffffffffffffffffffffffffffff1681565b60008073ffffffffffffffffffffffffffffffffffffffff1660008084815260200190815260200160002060009054906101000a900473ffffffffffffffffffffffffffffffffffffffff1673ffffffffffffffffffffffffffffffffffffffff1614159050919050565b8060008084815260200190815260200160002060006101000a81548173ffffffffffffffffffffffffffffffffffffffff021916908373ffffffffffffffffffffffffffffffffffffffff1602179055505050565b600080600083815260200190815260200160002060009054906101000a900473ffffffffffffffffffffffffffffffffffffffff169050919050565b6000813590506103168161043f565b92915050565b60008135905061032b81610456565b92915050565b6000602082840312156103475761034661043a565b5b60006103558482850161031c565b91505092915050565b600080604083850312156103755761037461043a565b5b60006103838582860161031c565b925050602061039485828601610307565b9150509250929050565b6103a7816103f2565b82525050565b6103b681610404565b82525050565b60006020820190506103d1600083018461039e565b92915050565b60006020820190506103ec60008301846103ad565b92915050565b60006103fd8261041a565b9050919050565b60008115159050919050565b6000819050919050565b600073ffffffffffffffffffffffffffffffffffffffff82169050919050565b600080fd5b610448816103f2565b811461045357600080fd5b50565b61045f81610410565b811461046a57600080fd5b5056fea2646970667358221220d5b16e62c0e8f0b2e3babab550a807c7c850fe03daa3909f8bfd226adb194ed064736f6c63430008070033",
  "immutableReferences": {},
  "source": "// SPDX-License-Identifier: MIT\r\npragma solidity ^0.8.7;\r\n\r\ncontract StorageContract {\r\n    mapping(bytes32 => address) public hashToOwner;\r\n\r\n    // Add a hash with an owner\r\n\r\n    function addHash(bytes32 _hash, address _owner) public {\r\n        \r\n        hashToOwner[_hash] = _owner;\r\n    }\r\n\r\n    // Retrieve owner of a hash\r\n\r\n    function getOwner(bytes32 _hash) public view returns (address) {\r\n        return hashToOwner[_hash];\r\n    }\r\n\r\n    // Check if a hash exists\r\n\r\n    function hashExists(bytes32 _hash) public view returns (bool) {\r\n        return hashToOwner[_hash] != address(0);\r\n    }\r\n\r\n    // Update the owner of a hash\r\n\r\n    function updateOwner(bytes32 _hash, address _newOwner) public {\r\n        hashToOwner[_hash] = _newOwner;\r\n    }\r\n\r\n    // Delete a hash entry\r\n\r\n    function deleteHash(bytes32 _hash) public {\r\n        delete hashToOwner[_hash];\r\n    }\r\n}\r\n",
  "sourcePath": "E:\\Sarvesh\\Final_Proj\\truffle\\contracts\\StorageContract.sol",
  "compiler": {
    "name": "solc",
    "version": "0.8.7+commit.e28d00a7.Emscripten.clang"
  },
  "schemaVersion": "3.4.16",
  "updatedAt": "2025-01-05T02:12:29.187Z",
  "networkType": "ethereum",
  "devdoc": {
    "kind": "dev",
    "methods": {},
    "version": 1
  },
  "userdoc": {
    "kind": "user",
    "methods": {},
    "version": 1
  }
}