{
  "contractName": "TransferContract",
  "abi": [
    {
      "inputs": [
        {
          "internalType": "address",
          "name": "_storageAddress",
          "type": "address"
        }
      ],
      "stateMutability": "nonpayable",
      "type": "constructor"
    },
    {
      "inputs": [
        {
          "internalType": "bytes32",
          "name": "_hash",
          "type": "bytes32"
        },
        {
          "internalType": "address",
          "name": "_newOwner",
          "type": "address"
        }
      ],
      "name": "transferOwnership",
      "outputs": [],
      "stateMutability": "nonpayable",
      "type": "function"
    }
  ],
  "bytecode": "0x608060405234801561001057600080fd5b5060405161034a38038061034a8339818101604052810190610032919061008d565b806000806101000a81548173ffffffffffffffffffffffffffffffffffffffff021916908373ffffffffffffffffffffffffffffffffffffffff16021790555050610108565b600081519050610087816100f1565b92915050565b6000602082840312156100a3576100a26100ec565b5b60006100b184828501610078565b91505092915050565b60006100c5826100cc565b9050919050565b600073ffffffffffffffffffffffffffffffffffffffff82169050919050565b600080fd5b6100fa816100ba565b811461010557600080fd5b50565b610233806101176000396000f3fe608060405234801561001057600080fd5b506004361061002b5760003560e01c8063ef5d6bbb14610030575b600080fd5b61004a60048036038101906100459190610107565b61004c565b005b60008054906101000a900473ffffffffffffffffffffffffffffffffffffffff1673ffffffffffffffffffffffffffffffffffffffff16639711a54383836040518363ffffffff1660e01b81526004016100a7929190610165565b600060405180830381600087803b1580156100c157600080fd5b505af11580156100d5573d6000803e3d6000fd5b505050505050565b6000813590506100ec816101cf565b92915050565b600081359050610101816101e6565b92915050565b6000806040838503121561011e5761011d6101ca565b5b600061012c858286016100f2565b925050602061013d858286016100dd565b9150509250929050565b6101508161018e565b82525050565b61015f816101a0565b82525050565b600060408201905061017a6000830185610156565b6101876020830184610147565b9392505050565b6000610199826101aa565b9050919050565b6000819050919050565b600073ffffffffffffffffffffffffffffffffffffffff82169050919050565b600080fd5b6101d88161018e565b81146101e357600080fd5b50565b6101ef816101a0565b81146101fa57600080fd5b5056fea2646970667358221220a1674c522236f81705c077c8827bc84670f5bd2c20d1094423144cc22b18fedc64736f6c63430008070033",
  "immutableReferences": {},
  "source": "// SPDX-License-Identifier: MIT\r\npragma solidity ^0.8.7;\r\n\r\nimport \"./StorageContract.sol\";\r\n\r\ncontract TransferContract {\r\n    StorageContract storageContract;\r\n\r\n    constructor(address _storageAddress) {\r\n        storageContract = StorageContract(_storageAddress);\r\n    }\r\n\r\n    // Transfer ownership of a hash\r\n    function transferOwnership(bytes32 _hash, address _newOwner) public {\r\n        storageContract.updateOwner(_hash, _newOwner);\r\n    }\r\n}\r\n",
  "sourcePath": "E:\\Sarvesh\\Final_Proj\\truffle\\contracts\\TransferContract.sol",
  "compiler": {
    "name": "solc",
    "version": "0.8.7+commit.e28d00a7.Emscripten.clang"
  },
  "schemaVersion": "3.4.16",
  "updatedAt": "2025-01-05T02:12:29.191Z",
  "networkType": "ethereum",
  "devdoc": {
    "kind": "dev",
    "methods": {},
    "version": 1
  },
  "userdoc": {
    "kind": "user",
    "methods": {},
    "version": 1
  }
}