{
  "contractName": "UploadContract",
  "abi": [
    {
      "inputs": [
        {
          "internalType": "address",
          "name": "_storageAddress",
          "type": "address"
        }
      ],
      "stateMutability": "nonpayable",
      "type": "constructor"
    },
    {
      "inputs": [
        {
          "internalType": "bytes32",
          "name": "_hash",
          "type": "bytes32"
        },
        {
          "internalType": "address",
          "name": "_uploader",
          "type": "address"
        }
      ],
      "name": "uploadHash",
      "outputs": [
        {
          "internalType": "address",
          "name": "",
          "type": "address"
        }
      ],
      "stateMutability": "nonpayable",
      "type": "function"
    }
  ],
  "bytecode": "0x608060405234801561001057600080fd5b506040516105a93803806105a98339818101604052810190610032919061008d565b806000806101000a81548173ffffffffffffffffffffffffffffffffffffffff021916908373ffffffffffffffffffffffffffffffffffffffff16021790555050610108565b600081519050610087816100f1565b92915050565b6000602082840312156100a3576100a26100ec565b5b60006100b184828501610078565b91505092915050565b60006100c5826100cc565b9050919050565b600073ffffffffffffffffffffffffffffffffffffffff82169050919050565b600080fd5b6100fa816100ba565b811461010557600080fd5b50565b610492806101176000396000f3fe608060405234801561001057600080fd5b506004361061002b5760003560e01c8063ed0a654614610030575b600080fd5b61004a6004803603810190610045919061030d565b610060565b604051610057919061036b565b60405180910390f35b60008060009054906101000a900473ffffffffffffffffffffffffffffffffffffffff1673ffffffffffffffffffffffffffffffffffffffff1663b535b5c3846040518263ffffffff1660e01b81526004016100bc9190610386565b60206040518083038186803b1580156100d457600080fd5b505afa1580156100e8573d6000803e3d6000fd5b505050506040513d601f19601f8201168201806040525081019061010c91906102e0565b156101c85760008060009054906101000a900473ffffffffffffffffffffffffffffffffffffffff1673ffffffffffffffffffffffffffffffffffffffff1663deb931a2856040518263ffffffff1660e01b815260040161016d9190610386565b60206040518083038186803b15801561018557600080fd5b505afa158015610199573d6000803e3d6000fd5b505050506040513d601f19601f820116820180604052508101906101bd91906102b3565b905080915050610259565b60008054906101000a900473ffffffffffffffffffffffffffffffffffffffff1673ffffffffffffffffffffffffffffffffffffffff1663b9d5bcc284846040518363ffffffff1660e01b81526004016102239291906103a1565b600060405180830381600087803b15801561023d57600080fd5b505af1158015610251573d6000803e3d6000fd5b505050508190505b92915050565b60008135905061026e81610417565b92915050565b60008151905061028381610417565b92915050565b6000815190506102988161042e565b92915050565b6000813590506102ad81610445565b92915050565b6000602082840312156102c9576102c8610412565b5b60006102d784828501610274565b91505092915050565b6000602082840312156102f6576102f5610412565b5b600061030484828501610289565b91505092915050565b6000806040838503121561032457610323610412565b5b60006103328582860161029e565b92505060206103438582860161025f565b9150509250929050565b610356816103ca565b82525050565b610365816103e8565b82525050565b6000602082019050610380600083018461034d565b92915050565b600060208201905061039b600083018461035c565b92915050565b60006040820190506103b6600083018561035c565b6103c3602083018461034d565b9392505050565b60006103d5826103f2565b9050919050565b60008115159050919050565b6000819050919050565b600073ffffffffffffffffffffffffffffffffffffffff82169050919050565b600080fd5b610420816103ca565b811461042b57600080fd5b50565b610437816103dc565b811461044257600080fd5b50565b61044e816103e8565b811461045957600080fd5b5056fea2646970667358221220051feccb644054c7a21620aa085ef02afd04e7b8474248de6bc91081ef97ac7364736f6c63430008070033",
  "immutableReferences": {},
  "source": "// SPDX-License-Identifier: MIT\r\npragma solidity ^0.8.7;\r\n\r\nimport \"./StorageContract.sol\";\r\n\r\ncontract UploadContract {\r\n    StorageContract storageContract;\r\n\r\n    constructor(address _storageAddress) {\r\n        storageContract = StorageContract(_storageAddress);\r\n    }\r\n\r\n    // Upload a new hash with an owner\r\n    function uploadHash(bytes32 _hash, address _uploader) public returns (address) {\r\n\r\n        if (storageContract.hashExists(_hash)) {\r\n            // If the hash exists, return the current owner's address\r\n\r\n            address owner = storageContract.getOwner(_hash);\r\n            return owner;\r\n\r\n        } else {\r\n            \r\n            // If the hash does not exist, add it and return the uploader's address\r\n            storageContract.addHash(_hash, _uploader);\r\n            return _uploader;\r\n        }\r\n\r\n    }\r\n}\r\n",
  "sourcePath": "E:\\Sarvesh\\Final_Proj\\truffle\\contracts\\UploadContract.sol",
  "compiler": {
    "name": "solc",
    "version": "0.8.7+commit.e28d00a7.Emscripten.clang"
  },
  "schemaVersion": "3.4.16",
  "updatedAt": "2025-01-05T02:12:29.195Z",
  "networkType": "ethereum",
  "devdoc": {
    "kind": "dev",
    "methods": {},
    "version": 1
  },
  "userdoc": {
    "kind": "user",
    "methods": {},
    "version": 1
  }
}