{
  "contractName": "VerificationContract",
  "abi": [
    {
      "inputs": [
        {
          "internalType": "address",
          "name": "_storageAddress",
          "type": "address"
        }
      ],
      "stateMutability": "nonpayable",
      "type": "constructor"
    },
    {
      "inputs": [
        {
          "internalType": "bytes32",
          "name": "_hash",
          "type": "bytes32"
        },
        {
          "internalType": "address",
          "name": "_owner",
          "type": "address"
        }
      ],
      "name": "verifyOwnership",
      "outputs": [
        {
          "internalType": "bool",
          "name": "",
          "type": "bool"
        }
      ],
      "stateMutability": "view",
      "type": "function",
      "constant": true
    }
  ],
  "bytecode": "0x608060405234801561001057600080fd5b506040516104093803806104098339818101604052810190610032919061008d565b806000806101000a81548173ffffffffffffffffffffffffffffffffffffffff021916908373ffffffffffffffffffffffffffffffffffffffff16021790555050610108565b600081519050610087816100f1565b92915050565b6000602082840312156100a3576100a26100ec565b5b60006100b184828501610078565b91505092915050565b60006100c5826100cc565b9050919050565b600073ffffffffffffffffffffffffffffffffffffffff82169050919050565b600080fd5b6100fa816100ba565b811461010557600080fd5b50565b6102f2806101176000396000f3fe608060405234801561001057600080fd5b506004361061002b5760003560e01c80634d41f49b14610030575b600080fd5b61004a600480360381019061004591906101ad565b610060565b604051610057919061020b565b60405180910390f35b60008173ffffffffffffffffffffffffffffffffffffffff1660008054906101000a900473ffffffffffffffffffffffffffffffffffffffff1673ffffffffffffffffffffffffffffffffffffffff1663deb931a2856040518263ffffffff1660e01b81526004016100d29190610226565b60206040518083038186803b1580156100ea57600080fd5b505afa1580156100fe573d6000803e3d6000fd5b505050506040513d601f19601f820116820180604052508101906101229190610180565b73ffffffffffffffffffffffffffffffffffffffff1614905092915050565b6000813590506101508161028e565b92915050565b6000815190506101658161028e565b92915050565b60008135905061017a816102a5565b92915050565b60006020828403121561019657610195610289565b5b60006101a484828501610156565b91505092915050565b600080604083850312156101c4576101c3610289565b5b60006101d28582860161016b565b92505060206101e385828601610141565b9150509250929050565b6101f681610253565b82525050565b6102058161025f565b82525050565b600060208201905061022060008301846101ed565b92915050565b600060208201905061023b60008301846101fc565b92915050565b600061024c82610269565b9050919050565b60008115159050919050565b6000819050919050565b600073ffffffffffffffffffffffffffffffffffffffff82169050919050565b600080fd5b61029781610241565b81146102a257600080fd5b50565b6102ae8161025f565b81146102b957600080fd5b5056fea26469706673582212206a5cdccfc2c365008aa5a607b662732014ef6b8baebf34b658a4d377d44b2a6364736f6c63430008070033",
  "immutableReferences": {},
  "source": "// SPDX-License-Identifier: MIT\r\npragma solidity ^0.8.7;\r\n\r\nimport \"./StorageContract.sol\";\r\n\r\ncontract VerificationContract {\r\n    StorageContract storageContract;\r\n\r\n    constructor(address _storageAddress) {\r\n        storageContract = StorageContract(_storageAddress);\r\n    }\r\n\r\n    // Verify ownership of a hash\r\n    function verifyOwnership(bytes32 _hash, address _owner) public view returns (bool) {\r\n        return storageContract.getOwner(_hash) == _owner;\r\n    }\r\n}\r\n",
  "sourcePath": "E:\\Sarvesh\\Final_Proj\\truffle\\contracts\\VerificationContract.sol",
  "compiler": {
    "name": "solc",
    "version": "0.8.7+commit.e28d00a7.Emscripten.clang"
  },
  "schemaVersion": "3.4.16",
  "updatedAt": "2025-01-05T02:12:29.189Z",
  "networkType": "ethereum",
  "devdoc": {
    "kind": "dev",
    "methods": {},
    "version": 1
  },
  "userdoc": {
    "kind": "user",
    "methods": {},
    "version": 1
  }
}